8=FIX.4.2|9=72|35=A|34=1|49=BANZAI|52=20170220-12:57:36.568|56=FIXIMULATOR|98=0|108=20|10=014|8=FIX.4.2|9=72|35=A|34=2|49=BANZAI|52=20170220-12:57:41.527|56=FIXIMULATOR|98=0|108=20|10=006|8=FIX.4.2|9=72|35=A|34=3|49=BANZAI|52=20170220-12:57:46.529|56=FIXIMULATOR|98=0|108=20|10=014|8=FIX.4.2|9=72|35=A|34=4|49=BANZAI|52=20170220-12:57:51.528|56=FIXIMULATOR|98=0|108=20|10=010|8=FIX.4.2|9=72|35=A|34=5|49=BANZAI|52=20170220-12:57:56.527|56=FIXIMULATOR|98=0|108=20|10=015|8=FIX.4.2|9=72|35=A|34=6|49=BANZAI|52=20170220-12:58:01.527|56=FIXIMULATOR|98=0|108=20|10=007|8=FIX.4.2|9=72|35=A|34=7|49=BANZAI|52=20170220-12:58:06.528|56=FIXIMULATOR|98=0|108=20|10=014|8=FIX.4.2|9=72|35=A|34=8|49=BANZAI|52=20170220-12:58:23.917|56=FIXIMULATOR|98=0|108=20|10=016|8=FIX.4.2|9=69|35=2|34=9|49=BANZAI|52=20170220-12:58:23.940|56=FIXIMULATOR|7=1|16=0|10=103|