8=FIX.4.2|9=72|35=A|34=1|49=SANTHI|52=20170311-08:45:21.210|56=FIXIMULATOR|98=0|108=20|10=013|8=FIX.4.2|9=60|35=0|34=2|49=SANTHI|52=20170311-08:45:41.972|56=FIXIMULATOR|10=243|8=FIX.4.2|9=60|35=0|34=3|49=SANTHI|52=20170311-08:46:02.154|56=FIXIMULATOR|10=234|8=FIX.4.2|9=60|35=0|34=4|49=SANTHI|52=20170311-08:46:22.154|56=FIXIMULATOR|10=237|8=FIX.4.2|9=60|35=0|34=5|49=SANTHI|52=20170311-08:46:42.155|56=FIXIMULATOR|10=241|8=FIX.4.2|9=60|35=0|34=6|49=SANTHI|52=20170311-08:47:02.155|56=FIXIMULATOR|10=239|8=FIX.4.2|9=60|35=0|34=7|49=SANTHI|52=20170311-08:47:22.154|56=FIXIMULATOR|10=241|8=FIX.4.2|9=60|35=0|34=8|49=SANTHI|52=20170311-08:47:42.154|56=FIXIMULATOR|10=244|8=FIX.4.2|9=60|35=0|34=9|49=SANTHI|52=20170311-08:48:02.155|56=FIXIMULATOR|10=243|